:020000040000FA
:100000000C947A010C94AB010C94AB010C94AB01F1
:100010000C94AB010C94AB010C94AB010C94AB01B0
:100020000C94AB010C94AB010C94AB010C94AB01A0
:100030000C94AB010C94AB010C94AB010C94AB0190
:100040000C94AB010C94AB010C94AB010C94AB0180
:100050000C94AB010C94AB010C94AB010C94F00626
:100060000C94AB010C94BA060C9490060C94AB0162
:100070000C94AB010C94AB010C94AB010C94AB0150
:100080000C94AB010C94AB010C94AB010C94AB0140
:100090000C94AB010C94AB010C94AB010C94AB0130
:1000A0000C94AB010C94AB010C94AB010C94AB0120
:1000B0000C94AB010C94AB010C94AB010C94AB0110
:1000C0000C94AB010C94AB010C94AB010C94AB0100
:1000D0000C94AB010C94AB010C94AB010C94AB01F0
:1000E0000C94AB010C94DF030C9405020C94900269
:1000F0000C94A4020C94600A0C94F5050C94DD0B8E
:100100000C94BC070C941C0E0C9421020C946D06EC
:100110000C9408040C941D020C94DE010C9409024A
:100120000C94FC010C9413020C94E0030C940A0D43
:100130000C946F060C944E060C94D9010C944C064A
:100140000C94F4010C940F020C945A0A0C94B80409
:100150000C948B0B0C9430040C9417020C948E06A8
:100160000C94F1030C942F020C94C00F0C945402C5
:100170000C94F0010C942B020C9437030C94F801AE
:100180000C94B2020C949F040C9481020C94EA0229
:100190000C942D060C942F0A0C94130F0C9425022A
:1001A0000C944B0B0C9402040C94FF014E414E49ED
:1001B0004E495459494E46CDCCCC3D0AD7233C1725
:1001C000B7D13877CC2B329595E6241FB14F0A0072
:1001D0000020410000C84200401C4620BCBE4CCA62
:1001E0001B0E5AAEC59D7430303031000000210026
:1001F000240027002A002D003000330001010000F8
:10020000040107010A0100002200250028002B003C
:100210002E003100340002010000050108010B012D
:1002200005050505070508080808020202020A0A72
:100230000808040404040101010101010101030390
:10024000030303030303040707070C0C0C0C0C0C3B
:100250000C0C0202020206060606060606060B0B38
:100260000B0B0B0B0B0B0102102020080810204079
:10027000102040800201020108040201010204086A
:1002800010204080804020100804020180040201F8
:100290008040201008040201080402010102040841
:1002A00010204080010204081020408000000A0B4A
:1002B00002090C0D0E0807030401000000000000F5
:1002C000000000000000000000000000000000002E
:1002D00000000000000000001211100000000000EB
:1002E000000000000000000000000000000000000E
:1002F0000000C00F11241FBECFEFD1E2DEBFCDBF83
:1003000000E00CBF24E0A4EEB2E001C01D92AF37C4
:10031000B207E1F712E0A0E0B2E0ECEFF0E300E0BA
:100320000BBF02C007900D92A43EB107D9F711E0B0
:10033000CAE7D1E000E006C021970109802FFE0145
:100340000E943816C937D10780E00807A9F70E9434
:1003500010100C947C180C940000382FE1EEF2E0A1
:100360008491EBE9F2E02491E5E5F2E094919923A0
:1003700009F435C0882311F181508231F8F4E82F57
:10038000F0E08827E953FE4F8F4F0C943816F801A0
:10039000FC01D901F001F401DE01FF0105020902AF
:1003A0000F02130217021D022102DE0125022B0299
:1003B0002F02809180008F7780938000E92FF0E0FA
:1003C000EE0FFF1FEA5FFD4FA591B4918FB7F89430
:1003D000EC91311148C020952E232C938FBF0895A6
:1003E000809180008F7DE8CF80918000877FE4CF6F
:1003F00084B58F7784BDE2CF84B58F7DFBCF8091AC
:10040000B0008F778093B000D9CF8091B0008F7DFE
:10041000F9CF809190008F7780939000CFCF80911B
:1004200090008F7DF9CF80919000877FF5CF8091EC
:10043000A0008F778093A000C1CF8091A0008F7D16
:10044000F9CF8091A000877FF5CF809120018F7731
:1004500080932001B3CF809120018F7DF9CF8091CF
:100460002001877FF5CF2E2BB8CF90E0FC01EA5911
:10047000FD4F2491805E9D4FFC018491882399F06B
:1004800090E0880F991FFC01E451FE4FA591B491B3
:10049000FC01EA5FFD4F859194918FB7F894EC9140
:1004A000E22BEC938FBF0895AF92BF92CF92DF9271
:1004B000EF92FF920F931F93CF93DF936C017B0119
:1004C0008B01040F151FEB015E01AE18BF08C017AA
:1004D000D10759F06991D601ED91FC910190F0811D
:1004E000E02DC6011995892B79F7C501DF91CF91D0
:1004F0001F910F91FF90EF90DF90CF90BF90AF9042
:100500000895FC01538D448D252F30E0842F90E019
:10051000821B930B541710F0CF96089501970895FE
:10052000FC01918D828D981761F0A28DAE0FBF2FC7
:10053000B11D5D968C91928D9F5F9F73928F90E01D
:1005400008958FEF9FEF0895FC01918D828D98178C
:1005500031F0828DE80FF11D858D90E008958FEFC9
:100560009FEF0895FC01918D228D892F90E0805C92
:100570009F4F821B91098F739927089580E893E01C
:100580000E94B20221E0892B09F420E0822F089515
:10059000FC01A48DA80FB92FB11DA35ABF4F2C91F8
:1005A000848D90E001968F739927848FA689B789EF
:1005B0002C93A089B1898C91837080648C93938DE6
:1005C000848D981306C00288F389E02D80818F7D89
:1005D00080830895EF92FF920F931F93CF93DF9341
:1005E000EC0181E0888F9B8D8C8D98131AC0E8896F
:1005F000F989808185FF15C09FB7F894EE89FF893E
:100600006083E889F98980818370806480839FBFDB
:1006100081E090E0DF91CF911F910F91FF90EF90DB
:100620000895F62E0B8D10E00F5F1F4F0F731127EB
:10063000E02E8C8D8E110CC00FB607FCFACFE88926
:10064000F989808185FFF5CFCE010E94C802F1CFE4
:10065000EB8DEC0FFD2FF11DE35AFF4FF0829FB79A
:10066000F8940B8FEA89FB8980818062CFCFCF938A
:10067000DF93EC01888D8823B9F0AA89BB89E889CA
:10068000F9898C9185FD03C0808186FD0DC00FB670
:1006900007FCF7CF8C9185FFF2CF808185FFEDCFEE
:1006A000CE010E94C802E9CFDF91CF91089580E08A
:1006B00090E0892B29F00E94BE0281110E94000067
:1006C00080E090E0892B49F080E090E0892B29F0D0
:1006D0000E94000081110E94000080E090E0892BC0
:1006E00049F080E090E0892B29F00E940000811100
:1006F0000E94000080E090E0892B49F080E090E0CB
:10070000892B29F00E94000081110C9400000895AB
:100710003FB7F89480910D0390910E03A0910F03C1
:10072000B091100326B5A89B05C02F3F19F0019684
:10073000A11DB11D3FBFBA2FA92F982F8827BC013B
:10074000CD01620F711D811D911D42E0660F771F63
:10075000881F991F4A95D1F708958F929F92AF9263
:10076000BF92CF92DF92EF92FF924B015C010E9409
:1007700088036B017C010E9488036C197D098E0936
:100780009F09683E734081059105A8F321E0821A14
:100790009108A108B10888EEC80E83E0D81EE11CBC
:1007A000F11C81149104A104B10429F7FF90EF908A
:1007B000DF90CF90BF90AF909F908F900895089555
:1007C000DC019C96EC919C979D962C91E21730F45D
:1007D000E80FF92FF11D848590E008958FEF9FEFCA
:1007E0000895FC0194A585A52FEF3FEF981740F4DD
:1007F000DF01A90FB11D1C962C9130E09F5F94A7DB
:10080000C9010895FC0185A594A5891B990B08953C
:10081000CF92DF92EF92FF920F931F93CF93DF93CC
:100820006C01EB017B01E40EF51E10E000E0CE153B
:10083000DF0561F06991D601ED91FC910190F081A5
:10084000E02DC6011995080F191FF1CFC801DF91DE
:10085000CF911F910F91FF90EF90DF90CF9008956F
:1008600090E080E0089547E454E062E274E090E0B4
:1008700080E00C940812FC0101900020E9F7319708
:10088000AF01481B590BBC0180E893E00C94540263
:100890008F929F92AF92BF920F931F93CF93DF934C
:1008A000CDB7DEB7A1970FB6F894DEBF0FBECDBFB0
:1008B00019A2423008F44AE08E010F5D1F4F842ECA
:1008C000912CB12CA12CA50194010E941616E62FA3
:1008D000B901CA01EA30F4F4E05DD801EE938D016C
:1008E000232B242B252B79F790E080E0109719F02B
:1008F000CD010E943B04A1960FB6F894DEBF0FBE57
:10090000CDBFDF91CF911F910F91BF90AF909F907E
:100910008F900895E95CE1CFCF93DF93BC01990FED
:10092000880B990B4AE00E944804EC018AE292E0AD
:100930000E943B048C0F9D1FDF91CF910895CF93B0
:10094000DF9390E080E00E948C04C7EED1E0FE01CE
:100950006491662339F080E893E00E94EA022196D0
:10096000892BA9F78AE292E0DF91CF910C943B04A6
:100970008DE292E00E943B0482E090E00C948C04B3
:10098000CF93DF93BC0190E080E04AE00E944804EE
:10099000EC018AE292E00E943B048C0F9D1FDF91E4
:1009A000CF9108954F925F926F927F928F929F9214
:1009B000AF92BF92CF92DF92EF92FF920F931F936D
:1009C000CF936B017C01742EAC019B010E94111628
:1009D000882399F08AE392E0CF911F910F91FF90C5
:1009E000EF90DF90CF90BF90AF909F908F907F90CF
:1009F0006F905F904F900C943B0446015701E89430
:100A0000B7F82FEF3FEF4FE75FE7C501B4010E9452
:100A1000111681110DC02FEF3FEF4FE75FE7C501C2
:100A2000B4010E94B61318161CF48EE392E0D4CFE2
:100A30002FEF3FEF4FE75FE4C701B6010E940C16AE
:100A400018161CF482E492E0C7CF2FEF3FEF4FE778
:100A50005FECC701B6010E94B61387FDF3CF20E01B
:100A600030E0A901C701B6010E94B61310E000E012
:100A700087FF0AC06DE280E893E00E94EA028C01E1
:100A8000F7FAF094F7F8F094C0E060E070E080E0EE
:100A90009FE37C1641F020E030E040E251E40E9408
:100AA0006415CF5FF6CFA70196010E94F8142B01C1
:100AB0003C010E94DD154B015C014AE00E944804A4
:100AC0007C01E00EF11ECC23C1F1C501B4010E94EE
:100AD000BB139B01AC01C301B2010E94F7144B018F
:100AE0005C016EE280E893E00E94EA02E80EF91EE3
:100AF000C15018F120E030E040E251E4C501B401FA
:100B00000E941C142B013C010E94DD154B01B12CED
:100B1000A12C4AE0C501B4010E944804E80EF91E68
:100B2000C501B4010E94BB139B01AC01C301B2011A
:100B30000E94F7144B015C01DBCFC701CF911F91DD
:100B40000F91FF90EF90DF90CF90BF90AF909F906C
:100B50008F907F906F905F904F900895CF93DF9329
:100B600042E00E94D204EC018AE292E00E943B043F
:100B70008C0F9D1FDF91CF910895DF92EF92FF922E
:100B80000F931F93CF93DF937C018B01CDE1D4E0D2
:100B90008A8190E001962BE0D22ED89EB001D99E9A
:100BA000700D1124888199810E9440169983888351
:100BB0002A8148E050E0B7012D9D800D911D112440
:100BC0000E9448178A81E881F9818D9DE00DF11D11
:100BD0001124128701878F5F8A83DF91CF911F9144
:100BE0000F91FF90EF90DF900895CF93DF930E94D5
:100BF0003304009779F10E94EA11D82FC92FCF70E2
:100C0000C061C062CF7780E00E94AD010CB405FCEA
:100C100015C0CEBD00000DB407FEFDCF8EB5DEBD04
:100C200000000DB407FEFDCF8EB581E00E94AD013E
:100C300090E080E0DF91CF910C948C04DEBD000049
:100C40000DB407FEFDCF8EB5CEBD00000DB407FE7E
:100C5000FDCFEACF81E090E0EDCFCF93DF930E940C
:100C600033040E94E611C4E1D3E0688379838A8368
:100C70009B830E9433040E94E6116C837D838E83E4
:100C80009F830E9433040E94E611688779878A87D0
:100C90009B87DF91CF9108950C942D06CF93DF931E
:100CA0000E9433040E94E611C4E1D3E06C877D8783
:100CB0008E879F870E9433040E94E611688B798B90
:100CC0008A8B9B8B0E9433040E94E6116C8B7D8B78
:100CD0008E8B9F8BDF91CF9108950C944E06CF930E
:100CE000DF930E9433040E94E611C4E1D3E0688FD1
:100CF000798F8A8F9B8F0E9433040E94E6116C8F3C
:100D00007D8F8E8F9F8F0E9433040E94E61168A30F
:100D100079A38AA39BA3DF91CF9108950C946F06CA
:100D20001F920F920FB60F9211240BB60F922F93B2
:100D30003F934F935F936F937F938F939F93AF9363
:100D4000BF93EF93FF9380E893E00E94C802FF9166
:100D5000EF91BF91AF919F918F917F916F915F9133
:100D60004F913F912F910F900BBE0F900FBE0F90A0
:100D70001F9018951F920F920FB60F9211240BB669
:100D80000F922F938F939F93EF93FF93E091900394
:100D9000F09191038081E0919603F091970382FD99
:100DA0001DC09081809199038F5F8F7320919A036A
:100DB000821741F0E0919903F0E0E058FC4F958FE5
:100DC00080939903FF91EF919F918F912F910F90B5
:100DD0000BBE0F900FBE0F901F9018958081F2CF21
:100DE0001F920F920FB60F9211242F933F938F9360
:100DF0009F93AF93BF938091090390910A03A091B1
:100E00000B03B0910C033091080323E0230F2D371F
:100E100058F50196A11DB11D209308038093090385
:100E200090930A03A0930B03B0930C0380910D03DE
:100E300090910E03A0910F03B09110030196A11D94
:100E4000B11D80930D0390930E03A0930F03B093F5
:100E50001003BF91AF919F918F913F912F910F9070
:100E60000FBE0F901F90189526E8230F0296A11D24
:100E7000B11DD2CF71E016980E9A3F98479A0000A4
:100E8000000000000E94BB0F0E98169A0E94BB0F34
:100E9000A894000000000000069B0E94B50FF2F02D
:100EA000889437990894771F30F716980E9A8030F7
:100EB00021F03F98479A0C945F0747983F9A0000AB
:100EC000000000000E94BB0F0E98169AA894000024
:100ED0000000069B0E94B50F0E94BB0F000000009F
:100EE00016980E9A872F9927089580E208950894FE
:100EF000881F0C947C07880F11F116980E9A000039
:100F00000000000028F400003F98479A0C948C07DA
:100F100047983F9A0C948C070E94BB0F0E98169A24
:100F2000A894000000000000069B0E94B50F1AF470
:100F300088270C94B5070E94BB0F0C947B0716986A
:100F40000E9A000000003F98479A0E94BB0F992715
:100F500088270E98169AA8940000069B0E94B50F49
:100F60003AF3379B81E00E94BB0F00000000169807
:100F70000E9A089581E00895CF93DF93EC01862FB8
:100F80000E947707811108C08FA5811102C083E0FC
:100F90008FA790E080E002C081E090E0DF91CF91E8
:100FA0000895682F89E494E00C94BC0716980E9A73
:100FB00047983F9A0E94BB0F0E98169A0E94BB0F4B
:100FC000069B0E94B50F3F98479A0E94BB0F089559
:100FD0001F93CF93DF93C9E4D4E01FA50E94D607E7
:100FE0001EA61FA6812FDF91CF911F9108958F9389
:100FF000F1E0E4EF8F918F93069B0E94B50F479825
:101000003F9A0E94BB0F0E947707882331F40E9409
:10101000D607319711F00C94FA0799270F9008958D
:10102000089516980E9A0E94BB0F3F98479A0E9407
:10103000BB0F0E98169A0E94BB0F069B0E94B50F1D
:1010400047983F9A0E94BB0F0E947707089581E05E
:101050000895069B0E94B50F47983F9A0E94BB0FC8
:101060000E947707089581E00895CF93C091770497
:10107000880FCC2371F00E941108882341F080E092
:101080008093780481E080937704CF91089582E083
:10109000F7CF0E942908811101C0C2E0C0937804F3
:1010A000F1CF2F923F924F925F926F927F928F92E9
:1010B0009F92AF92BF92CF92DF92EF92FF920F93E7
:1010C0001F93CF93DF93CDB7DEB764970FB6F89435
:1010D000DEBF0FBECDBFE4E1F3E0808189832180D4
:1010E00032804380922DA32DB42D8093780390936A
:1010F0007903A0937A03B0937B0354806580768054
:101100008780852D962DA72DB82D80937003909301
:101110007103A0937203B09373039084A184B2848B
:1011200083858A83892D9A2DAB2DBA81809368039C
:1011300090936903A0936A03B0936B0384858B83B8
:1011400085858C8386858D8387858E838B819C8125
:10115000AD81BE818093600390936103A09362038D
:10116000B093630380898F83818988878289898787
:1011700083898A878F819885A985BA85809358034A
:1011800090935903A0935A03B0935B0384898B8790
:1011900085898C8786898D8787898E878B859C85B5
:1011A000AD85BE858093500390935103A093520365
:1011B000B0935303808D8F87818D888B828D898B2F
:1011C000838D8A8B8F859889A989BA8980934803F2
:1011D00090934903A0934A03B0934B03C48CD58CDE
:1011E000E68CF78CC601D7018093400390934103AE
:1011F000A0934203B093430300A111A182A18C8B61
:1012000083A18B8BC801AC89BB89809338039093F1
:101210003903A0933A03B0933B0380E50E9435085D
:1012200090E080E00E94D107698189E494E00E9407
:10123000BC07622D89E494E00E94BC07632D89E419
:1012400094E00E94BC07642D89E494E00E94BC07EE
:10125000652D89E494E00E94BC07662D89E494E042
:101260000E94BC07672D89E494E00E94BC07682DAA
:1012700089E494E00E94BC07692D89E494E00E940F
:10128000BC076A2D89E494E00E94BC076B2D89E4B9
:1012900094E00E94BC076A8189E494E00E94BC0744
:1012A0006B8189E494E00E94BC076C8189E494E03E
:1012B0000E94BC076D8189E494E00E94BC076E81A6
:1012C00089E494E00E94BC070E94E8076AE070E0AD
:1012D00080E090E00E94AD0381E50E94350890E037
:1012E00080E00E94D1076F8189E494E00E94BC07EE
:1012F000688589E494E00E94BC07698589E494E0EC
:101300000E94BC076A8589E494E00E94BC076B8553
:1013100089E494E00E94BC076C8589E494E00E9413
:10132000BC076D8589E494E00E94BC076E8589E462
:1013300094E00E94BC076F8589E494E00E94BC079A
:10134000688989E494E00E94BC07698989E494E093
:101350000E94BC076A8989E494E00E94BC076C2D56
:1013600089E494E00E94BC076D2D89E494E00E941A
:10137000BC076E2D89E494E00E94BC076F2D89E4C0
:1013800094E00E94BC070E94E8076AE070E080E0F9
:1013900090E00E94AD0382E50E94350890E080E075
:1013A0000E94D107602F89E494E00E94BC07612F5E
:1013B00089E494E00E94BC076C8989E494E00E946F
:1013C000BC076B8989E494E00E94BC070E94E8078F
:1013D0006AE070E080E090E064960FB6F894DEBFBB
:1013E0000FBECDBFDF91CF911F910F91FF90EF9076
:1013F000DF90CF90BF90AF909F908F907F906F9035
:101400005F904F903F902F900C94AD03CF93C62FD9
:101410000E9435088C2FCC0F990B0E94D107CF91D9
:101420000C94E807CF93DF93D62FC42F682F80E763
:101430000E94060A84E40E94350881E090E00E9440
:10144000D1078D2FDD0F990B0E94D1078C2FCC0F68
:10145000990B0E94D107DF91CF910C94E807CF93AD
:10146000DF93C0911203D09113030E9433040097BD
:10147000F1F00E94EA11803223E09207B1F0843645
:101480009105A9F480E080FBC4F94D2F6C2F84E016
:101490000E94120A4D2F6C2F85E00E94120A90E0E4
:1014A00080E0DF91CF910C948C0481E0ECCF81E05F
:1014B00090E0F7CF65E080E70E94060A0C9451089F
:1014C00064E080E70E94060A0C945108682F80E7C8
:1014D0000E94060A89E20E94350860E889E494E0E7
:1014E0000E94BC0783E090E00E94D1070E94E807B9
:1014F00089E20E94350860EC89E494E00E94BC0710
:1015000090E080E00E94D1070E94E80789E20E94F3
:10151000350861E889E494E00E94BC0786EF90E01A
:101520000E94D1070E94E80789E20E9435086FE80F
:1015300089E494E00E94BC0782E090E00E94D10719
:101540000C94E807682F80E70E94060A84E70E944F
:10155000350868E089E494E00E94BC0790E080E0F0
:101560000E94D1070E94E80784E70E94350867E0DF
:1015700089E494E00E94BC0780E490E00E94D107D7
:101580000E94E80784E70E94350866E089E494E059
:101590000E94BC0786EA90E00E94D1070E94E807FB
:1015A00084E70E94350860E089E494E00E94BC076B
:1015B00083E890E00E94D1070C94E807CF92DF9275
:1015C000EF92FF920F931F93CF93C62F613208F0D3
:1015D000C0E2880F816090917704992331F10E94D5
:1015E000110891E0892790917804911105C0882312
:1015F00019F082E08093780485E5E82E84E0F82EE7
:1016000010E000E08C2F8150990B6C010C1780F4D6
:1016100081E0C016D10609F080E00E943A07F70188
:1016200081937F010F5F1F4FF1CF0E942908D9CF0F
:1016300010927504C0937604109277040E94D60726
:101640008C2FCF911F910F91FF90EF90DF90CF9053
:1016500008950F931F93CF93DF938B01EA01682FB7
:1016600080E70E94060A60E084E40E94060A62E0C5
:1016700084E40E94DE0A89E494E00E94F103F80108
:10168000808389E494E00E94F1038883DF91CF9105
:101690001F910F9108950F931F93CF93DF931F9284
:1016A0001F92CDB7DEB70E943304009789F10E94E4
:1016B000EA119C01215031092230310548F5029789
:1016C00029F184E0AE014E5F5F4FBE016F5F7F4F37
:1016D0000E94290B90E080E00E948C048981082FF1
:1016E0000F709A81102F092F90E024E0969587952E
:1016F0002A95E1F70E94C004C8010E94C0040F901F
:101700000F90DF91CF911F910F91089585E0DACF6F
:1017100081E090E0E1CFFF920F931F93CF93DF938F
:101720001F921F92CDB7DEB70E943304009709F4D1
:101730003FC00E94EA119C0121503109223031053D
:10174000B8F544E0F42E029711F435E0F32E04EFDF
:1017500011E0AE014E5F5F4FBE016F5F7F4F8F2D77
:101760000E94290B68E270E080E090E00E94AD03E7
:101770000150110971F790E080E00E948C0489818A
:10178000082F0F709A81102F092F90E024E0969572
:1017900087952A95E1F70E94C004C8010E94C00401
:1017A0000F900F90DF91CF911F910F91FF900895AF
:1017B00081E090E0E2CF0C94DE0A0F931F93CF9369
:1017C000DF9380E50E94350890E080E00E94D10719
:1017D00060E170E080E590E00E94DB0BC8E7D3E0B9
:1017E00089E494E00E94F103899383E0CC37D80721
:1017F000B9F7C0E7D3E089E494E00E94F10389934C
:1018000083E0C437D807B9F7C8E6D3E089E494E0A9
:101810000E94F103899383E0CC36D807B9F7C0E67C
:10182000D3E089E494E00E94F103899383E0C43615
:10183000D807B9F70E94E80781E50E94350890E0D3
:1018400080E00E94D10760E170E081E590E00E94B5
:10185000DB0BC8E5D3E089E494E00E94F1038993AF
:1018600083E0CC35D807B9F7C0E5D3E004E513E051
:1018700089E494E00E94F10389930C171D07C1F7D6
:10188000C8E4D3E00CE413E089E494E00E94F1039F
:1018900089930C171D07C1F7C0E4D3E004E413E0FB
:1018A00089E494E00E94F10389930C171D07C1F7A6
:1018B0000E94E80782E50E94350890E080E00E94DF
:1018C000D10764E070E082E590E00E94DB0BC8E3A2
:1018D000D3E00CE313E089E494E00E94F1038993E0
:1018E0000C171D07C1F70E94E807809178039091BB
:1018F0007903A0917A03B0917B038093E4029093E3
:10190000E502A093E602B093E70280917003909104
:101910007103A0917203B09173038093F0029093CE
:10192000F102A093F202B093F302809168039091C8
:101930006903A0916A03B0916B038093FC029093BA
:10194000FD02A093FE02B093FF028091600390918C
:101950006103A0916203B09163038093E8029093C6
:10196000E902A093EA02B093EB02809158039091B0
:101970005903A0915A03B0915B038093F4029093B2
:10198000F502A093F602B093F70280915003909174
:101990005103A0915203B09153038093000390939D
:1019A0000103A0930203B093030380914803909135
:1019B0004903A0914A03B0914B038093EC029093AA
:1019C000ED02A093EE02B093EF028091400390915C
:1019D0004103A0914203B09143038093F802909396
:1019E000F902A093FA02B093FB0280913803909120
:1019F0003903A0913A03B0913B0380930403909381
:101A00000503A0930603B0930703DF91CF911F91C5
:101A10000F9108958F929F92AF92BF92CF92DF92D3
:101A2000EF92FF920F931F93CF93DF930E943304A3
:101A3000009709F4B1C00E94EA119C0121503109BC
:101A40002230310508F0A8C064E0029709F465E08F
:101A500080E70E94060A64E989E20E94060A68E0BB
:101A600070E089E290E00E94DB0B89E494E00E9440
:101A7000F103E82E89E494E00E94F103D82F89E471
:101A800094E00E94F103C82E89E494E00E94F103DF
:101A9000C82F89E494E00E94F103D82E89E494E0F1
:101AA0000E94F103F82E89E494E00E94F103082FCC
:101AB00089E494E00E94F1039D2F9F708F70182F8E
:101AC000CF70DC2FCC2D2F2D2F70322F2D2D2C0FE2
:101AD0003D1F200F311FF92E2E193F0937FF02C07D
:101AE0002F5F3F4FB90175956795072E000C880B46
:101AF000990B0E94BD136B017C01BE01DD0F880BA9
:101B0000990B0E94BD13A70196010E94F7144B0187
:101B10005C01B801110F880B990B0E94BD13A7013E
:101B200096010E94F7140E94D615072E000C880B10
:101B3000990B0E94BD136B017C01C501B4010E9489
:101B4000D615072E000C880B990B0E94BD139B0124
:101B5000AC01C701B6010E94641520E030EC40E7FB
:101B600055E40E941C1420E030EE47EE54E40E943D
:101B7000F81442E00E94D20490E080E0DF91CF911F
:101B80001F910F91FF90EF90DF90CF90BF90AF909B
:101B90009F908F900C948C0481E090E0EFCF8F9217
:101BA0009F92AF92BF92CF92DF92EF92FF920F93EC
:101BB0001F93CF93DF934B015A01E901682F80E710
:101BC0000E94060A64E084E70E94060A66E070E06C
:101BD00084E790E00E94DB0B89E494E00E94F1032B
:101BE000F401808389E494E00E94F103F50180838D
:101BF00089E494E00E94F103888389E494E00E94E0
:101C0000F103F801808389E494E00E94F103F70175
:101C1000808389E494E00E94F103F6018083DF91E0
:101C2000CF911F910F91FF90EF90DF90CF90BF90D9
:101C3000AF909F908F9008952F923F924F925F9216
:101C40006F927F928F929F92AF92BF92CF92DF92CC
:101C5000EF92FF920F931F93CF93DF93CDB7DEB731
:101C60006E970FB6F894DEBF0FBECDBF0E9433044F
:101C7000009709F4D5C00E94EA119C012150310956
:101C80002230310508F0CCC0029709F0C7C085E0CA
:101C90005E0129E1A20EB11CFE017E966F019E013C
:101CA000235E3F4F79018E01045E1F4F22503109A0
:101CB000AE01465E5F4FB5010E94CF0D6A8D6F7019
:101CC000E62EF12CFE2CEE246C8D6F700E8D0F70B5
:101CD00010E0102F00278B8D762F682F90E080E08A
:101CE0000E94BB132FE135EB4EE65CE30E941C140F
:101CF0002B013C01898DE82AB70190E080E00E9429
:101D0000BB1329E831E340E05CE30E941C146B0143
:101D10007C018D8D082BB80190E080E00E94BB1300
:101D200021E338EA4DE55CE30E941C1469837A8361
:101D30008B839C834D825E826F827886C986DA8629
:101D4000EB86FC860E94DD0B8E01035F1F4F24EEA5
:101D5000E22E22E0F22E1801F80111921192119256
:101D600011928F019E012F5F3F4F69014701412C66
:101D7000512C3201F40161917191819191914F0146
:101D8000F60121913191419151916F010E941C14F2
:101D90009B01AC01C301B2010E94F8142B013C016C
:101DA0002C143D0439F7F801349740825182628245
:101DB0007382FCE0EF0EF11CA016B10669F66D858A
:101DC0007E858F8598890E94AE0569897A898B897D
:101DD0009C890E94AE056D897E898F89988D0E94AD
:101DE000AE0590E080E00E948C046E960FB6F894E9
:101DF000DEBF0FBECDBFDF91CF911F910F91FF903E
:101E0000EF90DF90CF90BF90AF909F908F907F909A
:101E10006F905F904F903F902F90089584E038CF5F
:101E200081E090E0E0CF8F929F92AF92BF92CF92ED
:101E3000DF92EF92FF920F931F93CF93DF9300D027
:101E400000D0CDB7DEB70E943304009709F47CC000
:101E50000E94EA119C01215031092230310508F01D
:101E600073C0029709F46EC084E09E012A5F3F4F61
:101E700069012150310979018E010C5F1F4F2250F9
:101E80003109AE014E5F5F4FBE016F5F7F4F0E9411
:101E9000CF0D6A816F70E62EF12CFE2CEE246C8142
:101EA0006F700E810F7010E0102F00278B81762F3E
:101EB000682F90E080E00E94BB132FE135EB4EE6E7
:101EC0005CE30E941C144B015C018981E82AB70184
:101ED00090E080E00E94BB1329E831E340E05CE33E
:101EE0000E941C146B017C018D81082BB80190E0CD
:101EF00080E00E94BB1321E338EA4DE55CE30E94D9
:101F00001C140E94AE05C501B4010E94AE05C701B4
:101F1000B6010E94AE0590E080E00E948C042696F7
:101F20000FB6F894DEBF0FBECDBFDF91CF911F91EA
:101F30000F91FF90EF90DF90CF90BF90AF909F9068
:101F40008F90089585E091CF81E090E0E6CF3F98B3
:101F50000E98479A169A88279927379B0895069BCB
:101F6000089581E0089581E00895069B0C94B50FD3
:101F7000A8940895089597E19A95F1F70895089522
:101F8000CF93DF93E0E8F3E01382128288EE93E0D0
:101F9000A0E0B0E084839583A683B7832AE032E093
:101FA0003183208325EC30E03587248724EC30E032
:101FB0003787268720EC30E0318B208B21EC30E016
:101FC000338B228B22EC30E0358B248B26EC30E0F7
:101FD000378B268B118E128E138E148EE9E4F4E06B
:101FE0001382128284839583A683B7838CE192E067
:101FF00091838083CDE1D4E0198218821A821C82F9
:102000001B828AE08F831BA61AA668E372E082E235
:1020100094E00E943317188619A6DF91CF91089596
:10202000789484B5826084BD84B5816084BD85B5B3
:10203000826085BD85B5816085BD80916E008160BF
:1020400080936E0010928100809181008260809365
:102050008100809181008160809381008091800067
:102060008160809380008091B10084608093B10092
:102070008091B00081608093B00080919100826077
:102080008093910080919100816080939100809174
:1020900090008160809390008091A1008260809385
:1020A000A1008091A10081608093A1008091A00097
:1020B00081608093A0008091210182608093210142
:1020C00080912101816080932101809120018160B4
:1020D0008093200180917A00846080937A008091BF
:1020E0007A00826080937A0080917A008160809388
:1020F0007A0080917A00806880937A001092C10003
:10210000E0919003F091910382E08083E0918C0351
:10211000F0918D031082E0918E03F0918F038FEC8C
:10212000808310929803E0919403F091950386E0E8
:102130008083E0919203F09193038081806180839A
:10214000E0919203F0919303808188608083E09115
:102150009203F0919303808180688083E0919203E1
:10216000F091930380818F7D80831092750410928B
:10217000760410927804109277040E94A70F85E3EA
:102180000E94350281E00E94AD01CFB7F8948091A2
:102190001103811123C0E5E5F2E08491EBE9F2E05F
:1021A0009491E82FF0E0EE0FFF1FE451FE4FA59150
:1021B000B491EC91E92319F481E00E94AD0185E32B
:1021C0000E9435028CB580618CBD8CB580648CBD5D
:1021D00084E30E94350283E30E943502809111035B
:1021E0008F5F80931103CFBF81E58CBD1DBC40E0A4
:1021F0006CE784E00E94120A40E06CE785E00E94F0
:10220000120A84E00E94A20A85E00E94A20A84E0E9
:102210000E94660A85E00E94660A8CE7809312039A
:102220001092130365EF75E086E492E00E94BD050D
:102230006BE47BE08CE492E00E94BD056CE17EE003
:102240008AE592E00E94BD056AE07DE08AE692E0C0
:102250000E94BD056FE27AE087E792E00E94BD052B
:102260006FE974E086E892E00E94BD056BE87BE0D0
:1022700082E992E00E94BD0563E17FE08BE992E094
:102280000E94BD056CE476E084EA92E00E94BD0500
:102290006DE676E08AEA92E00E94BD056EE876E09F
:1022A00080EB92E00E94BD056AE57AE086EB92E061
:1022B0000E94BD056DE276E080EC92E00E94BD05D3
:1022C0006EE476E086EC92E00E94BD056FE676E073
:1022D0008CEC92E00E94BD0560E67AE082ED92E02F
:1022E0000E94BD056DED7BE089ED92E00E94BD0589
:1022F00088EB94E0909321048093200480E893E09D
:102300000E94B202181619060CF05DC080E893E036
:102310000E949002C82F80912404C81338C047E45B
:1023200054E062E274E085E294E00E9408128C01BD
:10233000892BD9F0C0901F04D12CC0911D04D091DD
:102340001E04F12CE12CEC14FD04C4F45E0148E001
:1023500050E0BE01C8010E943A172B96892B51F418
:10236000D5011996ED91FC911995109225041092C2
:102370004604C4CFBFEFEB1AFB0AE5CFE09120047F
:10238000F0912104309789F3C8011995EECF8C2F75
:102390000C2E000C990B0E942317892B09F4AECF49
:1023A000E0914604E03208F0A9CF81E08E0F8093DF
:1023B0004604F0E0E35EFB4FC087E82FF0E0E35E09
:1023C000FB4F10869BCF0E94570398CF6627772735
:1023D0000C943712FC0188279927E8942191203228
:1023E000E9F3293010F02E30C8F32B3241F02D32B2
:1023F00039F4689404C00E942F12820F911D21911C
:1024000020532A30C0F31EF4909581959F4F089574
:10241000FA01A191B081009719F41097E1F0CD0174
:10242000DC01CD010D90002011F4C00113C0FB01AF
:102430002191222319F02015D9F7F3CFFB01219127
:10244000201519F41E92119606C02223C1F70D9093
:102450000020A1F7D001FA01A193B08308957AE09A
:10246000979F902D879F802D910D112408958F9215
:102470009F92AF92BF92CF92DF92EF92FF920F9313
:102480001F93CF93DF935C017B016115710519F0F8
:10249000DB018D939C9385010F5F1F4FF501D08168
:1024A0008D2F90E00E9495136C01892BB9F5DD32D8
:1024B000B9F50F5F1F4FD5011196DC91C1E05801AE
:1024C000F1E0AF1AB10843E050E064EB71E0C50100
:1024D0000E949E13892B69F5680182E0C80ED11C09
:1024E00045E050E06FEA71E0C6010E949E13892B1F
:1024F00021F4680197E0C90ED11CE114F10419F030
:10250000D701CD92DC9260E070E080E89FEFC111CE
:10251000FFC060E070E080E89FE7FAC05801BBCFE1
:10252000DB3229F485010E5F1F4FF501D181C0E038
:10253000C6CF43E050E06CEA71E0C5010E949E13F3
:10254000892BE9F0F80110E000E020E030E0A9017B
:102550005F01B0ED8B2E8D0E89E08815C8F19C2EA1
:10256000689491F88C2F8870C2FF16C0811102C048
:102570000F5F1F4F3196D501DC91C92DE9CFE114D2
:10258000F10429F00E5F1F4FF7011183008360E013
:1025900070E080EC9FE7BCC0882311F00150110966
:1025A000A5E0B0E00E94DD149B01AC01220F331FB7
:1025B000441F551F280D311D411D511D283999E912
:1025C0003907490799E15907A8F2C6609C2ED2CF76
:1025D000AEEF8A1206C0C3FD3CC09C2E689493F8EF
:1025E000C9CFDF7DD534A9F580818D3239F4C06142
:1025F000DF011296818162E070E006C0DF018B325C
:10260000C1F3119661E070E080535D01A61AB70A2C
:102610008A30F8F4E0E8CE16ECE0DE065CF4B601B1
:10262000660F771F660F771FC60ED71ECC0CDD1CFA
:10263000C80ED11C5D01FFEFAF1ABF0A8C91805309
:102640008A30A8F1C4FF03C0D194C194D1080C0D05
:102650001D1DC1FF09C0E114F10431F081E0A81A89
:10266000B108D701AD92BC92CA01B9010E94BB1357
:10267000C370C33009F490584B015C0120E030E096
:10268000A9010E94B613882309F440C0C3EED1E02B
:1026900017FF05C0119501951109CBECD1E06E0132
:1026A000B8E1CB1AD10880E2E82EF12C0FC0D50199
:1026B000B1CFFE0125913591459154910E191F0915
:1026C000C501B4010E941C144B015C01D501C40179
:1026D0000E151F0574F72497F594E794CC16DD06C4
:1026E000A9F78A2F880F8B2F881F8F3F49F020E092
:1026F00030E0A901C501B4010E94B613811106C0E2
:1027000082E290E090937A0480937904C501B40149
:10271000DF91CF911F910F91FF90EF90DF90CF90BD
:10272000BF90AF909F908F90089591110C94891451
:10273000803219F089508550C8F70895FB01DC01FB
:102740004150504088F08D9181341CF08B350CF451
:10275000805E659161341CF06B350CF4605E861B05
:10276000611171F3990B0895881BFCCF0E94F81337
:1027700008F481E00895E89409C097FB3EF4909531
:102780008095709561957F4F8F4F9F4F9923A9F04A
:10279000F92F96E9BB279395F695879577956795D9
:1027A000B795F111F8CFFAF4BB0F11F460FF1BC01D
:1027B0006F5F7F4F8F4F9F4F16C0882311F096E9B0
:1027C00011C0772321F09EE8872F762F05C066235E
:1027D00071F096E8862F70E060E02AF09A95660F17
:1027E000771F881FDAF7880F9695879597F90895D0
:1027F000990F0008550FAA0BE0E8FEEF1616170612
:10280000E807F907C0F012161306E407F50798F079
:10281000621B730B840B950B39F40A2661F0232B92
:10282000242B252B21F408950A2609F4A140A6950E
:102830008FEF811D811D08950E942F140C94A31405
:102840000E94951438F00E949C1420F0952311F0FA
:102850000C948C140C94921411240C94D7140E9490
:10286000B41470F3959FC1F3950F50E0551F629F0C
:10287000F001729FBB27F00DB11D639FAA27F00DD9
:10288000B11DAA1F649F6627B00DA11D661F829F00
:102890002227B00DA11D621F739FB00DA11D621FE5
:1028A000839FA00D611D221F749F3327A00D611D02
:1028B000231F849F600D211D822F762F6A2F1124E4
:1028C0009F5750409AF0F1F088234AF0EE0FFF1F17
:1028D000BB1F661F771F881F91505040A9F79E3F6E
:1028E000510580F00C948C140C94D7145F3FE4F3E2
:1028F000983ED4F3869577956795B795F795E795C4
:102900009F5FC1F7FE2B880F911D9695879597F9CC
:10291000089599278827089597F99F6780E870E0C0
:1029200060E008959FEF80EC089500240A94161645
:10293000170618060906089500240A9412161306AD
:10294000140605060895092E0394000C11F488233B
:1029500052F0BB0F40F4BF2B11F460FF04C06F5F57
:102960007F4F8F4F9F4F089557FD9058440F551F2D
:1029700059F05F3F71F04795880F97FB991F61F001
:102980009F3F79F087950895121613061406551F78
:10299000F2CF4695F1DF08C0161617061806991FE4
:1029A000F1CF86957105610508940895E894BB27D9
:1029B00066277727CB0197F908950E94E814A59F11
:1029C000900DB49F900DA49F800D911D112408952A
:1029D000A29FB001B39FC001A39F700D811D112460
:1029E000911DB29F700D811D1124911D08955058A5
:1029F000BB27AA270E940F150C94A3140E949514BC
:102A000038F00E949C1420F039F49F3F19F426F40A
:102A10000C9492140EF4E095E7FB0C948C14E92FBF
:102A20000E94B41458F3BA17620773078407950716
:102A300020F079F4A6F50C94D6140EF4E0950B2E44
:102A4000BA2FA02D0B01B90190010C01CA01A00100
:102A50001124FF27591B99F0593F50F4503E68F15B
:102A60001A16F040A22F232F342F4427585FF3CF9C
:102A7000469537952795A795F0405395C9F77EF46D
:102A80001F16BA0B620B730B840BBAF09150A1F0B6
:102A9000FF0FBB1F661F771F881FC2F70EC0BA0F3C
:102AA000621F731F841F48F4879577956795B795C4
:102AB000F7959E3F08F0B0CF9395880F08F09927BF
:102AC000EE0F9795879508950E9478150C94A3149E
:102AD0000E949C1458F00E94951440F029F45F3F26
:102AE00029F00C948C1451110C94D7140C9492145A
:102AF0000E94B41468F39923B1F3552391F3951B05
:102B0000550BBB27AA2762177307840738F09F5F0E
:102B10005F4F220F331F441FAA1FA9F335D00E2E7B
:102B20003AF0E0E832D091505040E695001CCAF7E8
:102B30002BD0FE2F29D0660F771F881FBB1F2617AB
:102B400037074807AB07B0E809F0BB0B802DBF0182
:102B5000FF2793585F4F3AF09E3F510578F00C9451
:102B60008C140C94D7145F3FE4F3983ED4F386950D
:102B700077956795B795F7959F5FC9F7880F911D72
:102B80009695879597F90895E1E0660F771F881F5E
:102B9000BB1F621773078407BA0720F0621B730B11
:102BA000840BBA0BEE1F88F7E09508950E94DD159F
:102BB0006894B1110C94D71408950E94BC1488F045
:102BC0009F5798F0B92F9927B751B0F0E1F0660FF1
:102BD000771F881F991F1AF0BA95C9F714C0B13032
:102BE00091F00E94D614B1E008950C94D614672F8A
:102BF000782F8827B85F39F0B93FCCF38695779561
:102C00006795B395D9F73EF4909580957095619549
:102C10007F4F8F4F9F4F08950E94F81308F48FEF56
:102C200008950E94F813880B990B0895A1E21A2EBB
:102C3000AA1BBB1BFD010DC0AA1FBB1FEE1FFF1F60
:102C4000A217B307E407F50720F0A21BB30BE40BB0
:102C5000F50B661F771F881F991F1A9469F76095F7
:102C60007095809590959B01AC01BD01CF010895B1
:102C7000EE0FFF1F881F8BBF0790F691E02D199470
:102C80004F925F926F927F928F929F92AF92BF927C
:102C9000CF92DF92EF92FF920F931F93CF93DF9328
:102CA0008C01009799F4CB01DF91CF911F910F9187
:102CB000FF90EF90DF90CF90BF90AF909F908F905C
:102CC0007F906F905F904F900C945717FC01E60F28
:102CD000F71F9C0122503109E217F30708F4AEC038
:102CE000D901CD91DC911197C617D70720F1C530D6
:102CF000D10578F0CE0104978617970750F0C61BD0
:102D0000D70B2297C193D1936D937C93CF010E94EF
:102D1000F317C801DF91CF911F910F91FF90EF90B2
:102D2000DF90CF90BF90AF909F908F907F906F90EB
:102D30005F904F9008955B01AC1ABD0A4C018C0E58
:102D40009D1EA0917D04B0917E04512C412CF12C4C
:102D5000E12C109731F580917B0490917C048815CB
:102D6000990509F05CC04616570608F058C08091D6
:102D7000000290910102009741F48DB79EB74091F7
:102D8000040250910502841B950BE817F90708F01F
:102D900055C0F0937C04E0937B04F9017183608358
:102DA000B8CF8D919C91119712966C9012971396B3
:102DB0007C901397A815B90559F56C0142E0C40E33
:102DC000D11CCA14DB0420F1AC014A195B09DA01F9
:102DD0001296159780F06282738251834083D901E5
:102DE0006D937C93E114F10471F0D7011396FC9379
:102DF000EE9312978ECF22968C0F9D1FF90191832F
:102E00008083F301EFCFF0937E04E0937D0481CFC4
:102E10004816590608F42C017D01D3019ACFCB0145
:102E20000E9457177C01009749F0AE01B8010E943B
:102E30002A17C8010E94F31787016BCF10E000E04A
:102E400068CF803209F091110C94891480528F550B
:102E5000D8F70895FB01DC0102C001900D924150AA
:102E60005040D8F70895FB01DC0101900D9200203D
:102E7000E1F70895FB01DC014150504030F08D91A5
:102E80000190801919F40020B9F7881B990B089557
:102E9000FB01DC014150504048F001900D920020B0
:102EA000C9F701C01D9241505040E0F708950F93BB
:102EB0001F93CF93DF938230910510F482E090E06E
:102EC000E0917D04F0917E0430E020E0B0E0A0E0ED
:102ED000309799F42115310509F44AC0281B390BA4
:102EE00024303105D8F58A819B816115710589F1FE
:102EF000FB0193838283FE0111C0408151810281D5
:102F0000138148175907E0F04817590799F41097AB
:102F100061F012960C93129713961C933296CF0180
:102F2000DF91CF911F910F91089500937D0410932D
:102F30007E04F4CF2115310551F04217530738F0C4
:102F4000A901DB019A01BD01DF01F801C1CFEF0149
:102F5000F9CF90937E0480937D04CDCFFE01E20FE4
:102F6000F31F819391932250310939832883D7CF5E
:102F700020917B0430917C04232B41F420910202A8
:102F80003091030230937C0420937B042091000253
:102F9000309101022115310541F42DB73EB7409122
:102FA000040250910502241B350BE0917B04F09143
:102FB0007C04E217F307A0F42E1B3F0B28173907F8
:102FC00078F0AC014E5F5F4F2417350748F04E0F85
:102FD0005F1F50937C0440937B04819391939FCF18
:102FE000F0E0E0E09CCFCF93DF930097E9F0FC01A5
:102FF000329713821282A0917D04B0917E04ED017C
:1030000030E020E01097A1F420813181820F931FDE
:1030100020917B0430917C042817390709F061C0A6
:10302000F0937C04E0937B04DF91CF910895EA0153
:10303000CE17DF07E8F54A815B819E0141155105F6
:10304000B1F7E901FB83EA8349915991C40FD51F78
:10305000EC17FD0761F4808191810296840F951F22
:10306000E90199838883828193819B838A83F0E03D
:10307000E0E012968D919C9113970097B9F52D91F0
:103080003C911197CD010296820F931F20917B04F2
:1030900030917C042817390739F6309751F5109292
:1030A0007E0410927D04B0937C04A0937B04BCCF7B
:1030B000D383C28340815181840F951FC817D907DC
:1030C00061F44E5F5F4F88819981480F591F51838A
:1030D00040838A819B81938382832115310509F086
:1030E000B0CFF0937E04E0937D049ECFFD01DC0120
:1030F000C0CF13821282D7CFF894FFCF00007F0495
:10310000800000000000EA02540281023703B2028C
:103110009002A40200000000BC0708043004DF0392
:103120000204F103E0030D0A004572726F7220433E
:103130006F64653A20006E616E00696E66006F769E
:1031400066004C494748540052454144414C535352
:10315000454E534F520052454144434F4C4F5253FA
:10316000454E534F520052454144495253454E53E8
:103170004F5200434F4E56455253494F4E54494DBE
:1031800045004D414C5456455253494F4E0052450F
:103190004144434F4E5400434F4C4F52524157000D
:1031A00043414C42580043414C42590043414C4238
:1031B0005A0043414C424F54544F4D0043414C54EC
:1031C000580043414C54590043414C545A00434128
:1031D0004C544F500052454144454550524F4D00CC
:020000040003F7
:10E000000D9489F10D94B2F10D94B2F10D94B2F129
:10E010000D94B2F10D94B2F10D94B2F10D94B2F1F0
:10E020000D94B2F10D94B2F10D94B2F10D94B2F1E0
:10E030000D94B2F10D94B2F10D94B2F10D94B2F1D0
:10E040000D94B2F10D94B2F10D94B2F10D94B2F1C0
:10E050000D94B2F10D94B2F10D94B2F10D94B2F1B0
:10E060000D94B2F10D94B2F10D94B2F10D94B2F1A0
:10E070000D94B2F10D94B2F10D94B2F10D94B2F190
:10E080000D94B2F10D94B2F10D94B2F10D94B2F180
:10E090000D94B2F10D94B2F10D94B2F10D94B2F170
:10E0A0000D94B2F10D94B2F10D94B2F10D94B2F160
:10E0B0000D94B2F10D94B2F10D94B2F10D94B2F150
:10E0C0000D94B2F10D94B2F10D94B2F10D94B2F140
:10E0D0000D94B2F10D94B2F10D94B2F10D94B2F130
:10E0E0000D94B2F141546D656761323536300041AF
:10E0F000726475696E6F206578706C6F72657220DE
:10E1000073746B3530305632206279204D4C530099
:10E11000426F6F746C6F616465723E004875683F52
:10E1200000436F6D70696C6564206F6E203D200048
:10E130004350552054797065202020203D20005FF9
:10E140005F4156525F415243485F5F3D2000415658
:10E1500052204C696243205665723D20004743437C
:10E160002056657273696F6E203D20004350552024
:10E1700049442020202020203D20004C6F7720663D
:10E18000757365202020203D20004869676820665F
:10E190007573652020203D200045787420667573D6
:10E1A00065202020203D20004C6F636B2066757336
:10E1B000652020203D20004D617220203720323024
:10E1C000313300312E362E3800342E332E350056A2
:10E1D00023202020414444522020206F7020636F70
:10E1E00064652020202020696E73747275637469E1
:10E1F0006F6E2061646472202020496E74657272B3
:10E20000757074006E6F20766563746F7200726A49
:10E210006D702020006A6D70200057686174207056
:10E220006F72743A00506F7274206E6F7420737541
:10E2300070706F72746564004D7573742062652030
:10E2400061206C6574746572002000577269747483
:10E25000696E672045450052656164696E672045B7
:10E26000450045452065727220636E743D00504F35
:10E27000525400303D5A65726F2061646472003FF1
:10E280003D43505520737461747300403D454550C3
:10E29000524F4D207465737400423D426C696E6B41
:10E2A000204C454400453D44756D70204545505215
:10E2B0004F4D00463D44756D7020464C415348001B
:10E2C000483D48656C70004C3D4C69737420492F83
:10E2D0004F20506F72747300513D51756974005234
:10E2E0003D44756D702052414D00563D73686F7707
:10E2F00020696E7465727275707420566563746FF0
:10E30000727300593D506F727420626C696E6B00BD
:10E310002A0011241FBECFEFD1E2DEBFCDBF01E046
:10E320000CBF12E0A0E0B2E0EEE1FDEF03E00BBFB6
:10E3300002C007900D92A030B107D9F712E0A0E01B
:10E34000B2E001C01D92AE30B107E1F70F9460F367
:10E350000D948DFE01E20EBF0FEF0DBF11241FBE05
:10E360000D9460F30D9400F020E030E040ED57E0B4
:10E3700005C0FA013197F1F72F5F3F4F2817390792
:10E38000C0F308959C01260F311DC901A0E0B0E043
:10E390002F5F3F4FABBFFC018791882361F08093D3
:10E3A000C6008091C00086FFFCCF8091C0008064D1
:10E3B0008093C000EACF08958DE08093C6008091DD
:10E3C000C00086FFFCCF8091C00080648093C000B5
:10E3D0008AE08093C6008091C00086FFFCCF8091C8
:10E3E000C00080648093C00008950F94C2F10F9420
:10E3F000DCF10895FC019081992359F09093C600B7
:10E400008091C00086FFFCCF8091C0008064809323
:10E41000C0003196992379F70895282F982F929567
:10E420009F70892F805D8A3308F0895F8093C600D2
:10E430008091C00086FFFCCF8091C00080648093F3
:10E44000C000822F8F70982F905D9A3308F0995FEB
:10E450009093C6008091C00086FFFCCF8091C000E1
:10E4600080648093C00008959C01FB01853691056E
:10E470001CF46330710594F0C90164E670E00F94F8
:10E480002EFE605D7F4F6093C6008091C00086FFC6
:10E49000FCCF8091C00080648093C0002B30310598
:10E4A00014F43297B4F0C90164E670E00F942EFEC4
:10E4B0006AE070E00F942EFE605D7F4F6093C600AF
:10E4C0008091C00086FFFCCF8091C0008064809363
:10E4D000C000C9016AE070E00F942EFEC0968093E0
:10E4E000C6008091C00086FFFCCF8091C000806490
:10E4F0008093C00008951F93182F8EE692EE60E07F
:10E500000F94C2F11093C6008091C00086FFFCCF2B
:10E510008091C00080648093C0000F94DCF11F9153
:10E5200008952F923F924F925F926F927F928F92B7
:10E530009F92AF92BF92CF92DF92EF92FF920F9392
:10E540001F93DF93CF93CDB7DEB762970FB6F894E2
:10E55000DEBF0FBECDBF382E622ECA01DB015C01CB
:10E560006D01772420E2222E2E010894411C511CBB
:10E570008BC081E0A81680E0B80681E0C80680E084
:10E58000D80628F0C601AA27BB270F940DF2BB2797
:10E59000AD2D9C2D8B2D0F940DF28A2D0F940DF225
:10E5A0002092C6008091C00086FFFCCF8091C00001
:10E5B00080648093C0009DE29093C6008091C0006B
:10E5C00086FFFCCF8091C00080648093C0002092C1
:10E5D000C6008091C00086FFFCCF8091C00080649F
:10E5E0008093C00019828601750188249924A1E0D6
:10E5F0003A1651F03A1620F0B2E03B1661F409C029
:10E600000BBFF701779007C0C7010F9477FE782EF4
:10E6100002C0F7017080872D0F940DF22092C60082
:10E620008091C00086FFFCCF8091C0008064809301
:10E63000C000872D8052F401EF70F0708F3520F408
:10E64000E40DF51D708204C0E40DF51D8EE280839B
:10E650000894E11CF11C011D111D0894811C911CE2
:10E6600090E18916910409F0C2CF80E190E0A0E02A
:10E67000B0E0A80EB91ECA1EDB1E198AC2010F9493
:10E68000FAF10F94DCF16A94662009F072CF629679
:10E690000FB6F894DEBF0FBECDBFCF91DF911F91B3
:10E6A0000F91FF90EF90DF90CF90BF90AF909F9031
:10E6B0008F907F906F905F904F903F902F90089534
:10E6C0002F923F924F925F926F927F928F929F9282
:10E6D000AF92BF92CF92DF92EF92FF920F931F9370
:10E6E000DF93CF93CDB7DEB7CD53D1400FB6F894BB
:10E6F000DEBF0FBECDBF01E20EBF0FEF0DBF94B75F
:10E70000F894A89514BE80916000886180936000A1
:10E7100010926000789493FF05C0E0910002F091A0
:10E7200001021995279A2F9A8091C00082608093E8
:10E73000C00080E18093C40088E18093C1000000A4
:10E74000EE24FF24870144E0A42EB12CCC24DD2448
:10E7500024C0C5010197F1F70894E11CF11C011DCB
:10E76000111D21E2E2162EE4F20620E0020720E06D
:10E77000120718F031E0C32ED12CC801B70127ECE5
:10E780003BE140E050E00F9441FE611571058105C9
:10E79000910519F485B1805885B98091C00087FD35
:10E7A00003C0C114D104A9F2A6014F5F5F4FC25E3E
:10E7B000DE4F59834883CE51D140C25EDE4F8881FF
:10E7C0009981CE51D140019711F00D9410FEC05D9A
:10E7D000DE4F19821882C053D14060E0C15DDE4F28
:10E7E0001882CF52D14088249924C35DDE4F19820C
:10E7F0001882CD52D140C05EDE4F188219821A8233
:10E800001B82C052D140CE5CDE4F188219821A8220
:10E810001B82C253D140EE24FF2487010BBFF701B6
:10E8200007911691C45CDE4F19830883CC53D14005
:10E830000D940BFEC25EDE4F28813981CE51D1404E
:10E840002130310509F52091C600C25EDE4F1982E4
:10E850001882CE51D14022C02F5F3F4F4F4F5F4FA4
:10E86000213082E138078AE7480780E0580780F0C6
:10E87000C45CDE4FE881F981CC53D140EF5FFF4F9C
:10E8800019F0EE27FF27099420E030E040E050E047
:10E890008091C00087FFE0CF2091C600C35DDE4FAE
:10E8A00048815981CD52D1404F5F5F4FC35DDE4FEC
:10E8B00059834883CD52D140213209F063C64A3092
:10E8C000510508F05FC60894811C911C53E0851621
:10E8D000910409F059C600E010E018C081E280936D
:10E8E000C6008091C00086FFFCCF8091C00080648C
:10E8F0008093C0002F5F3F4F2931310579F70F9486
:10E90000DCF10F5F1F4F0530110519F020E030E0FA
:10E91000E5CF10920A0210920B0210920C02109294
:10E920000D02109206021092070210920802109235
:10E930000902109202021092030210920402109235
:10E9400005028FEE90EE60E00F94F5F180E191EE1C
:10E9500060E00F94C2F18091C00087FFFCCF9091DE
:10E96000C600903608F09F759032B8F09093C600BC
:10E970008091C00086FFFCCF8091C00080648093AE
:10E98000C000A0E2A093C6008091C00086FFFCCF2B
:10E990008091C00080648093C000983409F4D7C18E
:10E9A0009934B8F4923409F459C1933458F490333B
:10E9B00019F1903308F4E3C59F33A1F1903409F0C5
:10E9C000DEC5BDC0953409F470C1963409F0D7C5D1
:10E9D00098C1923509F42BC2933538F49C3409F46C
:10E9E000F5C1913509F0CBC518C2963509F445C279
:10E9F000993509F0C4C567C483E792EE62E00F94CD
:10EA0000F5F110920602109207021092080210927D
:10EA1000090210920A0210920B0210920C0210923C
:10EA20000D0213C18FE792EE62E00F94F5F18FEEC5
:10EA300090EE60E00F94F5F181E291EE60E00F94CA
:10EA4000C2F187EB91EE60E00F94F5F180E391EE77
:10EA500060E00F94C2F184EE90EE60E00F94F5F167
:10EA60008FE391EE60E00F94C2F186E090E061E008
:10EA700070E00F9434F20F94DCF18DE591EE60E0DC
:10EA80000F94C2F189EC91EE60E00F94F5F18EE401
:10EA900091EE60E00F94C2F183EC91EE60E00F9490
:10EAA000F5F18CE691EE60E00F94C2F18EE10F94E7
:10EAB0000DF288E90F940DF281E00F940DF20F949E
:10EAC000DCF18BE791EE60E00F94C2F119E0E0E039
:10EAD000F0E010935700E4918E2F0F940DF20F94F5
:10EAE000DCF18AE891EE60E00F94C2F1E3E0F0E03F
:10EAF00010935700E4918E2F0F940DF20F94DCF1D8
:10EB000089E991EE60E00F94C2F1E2E0F0E0109349
:10EB10005700E4918E2F0F940DF20F94DCF188EAE8
:10EB200091EE60E00F94C2F1E1E0F0E01093570045
:10EB30001491812F0F940DF20F94DCF107CF8BE825
:10EB400092EE62E00F94F5F18BE492EE60E00F94A8
:10EB5000F5F10F94DCF100E010E019C0C8016F2D51
:10EB60000F947FFEFF2031F489E492EE60E00F9471
:10EB7000C2F10BC0F092C6008091C00086FFFCCFAE
:10EB80008091C00080648093C0000F5F1F4FC80158
:10EB900081519F41A0E0B0E0ABBFFC01F790BAE229
:10EBA000FB1621F0E2E000301E07C1F60F94DCF105
:10EBB0000F94DCF187E592EE60E00F94F5F10F948D
:10EBC000DCF1CC24DD2400E010E01EC0C8010F946D
:10EBD00077FEF82E882331F489E492EE60E00F94FA
:10EBE000C2F10BC08093C6008091C00086FFFCCFAD
:10EBF0008091C00080648093C000FE1419F00894D6
:10EC0000C11CD11C0F5F1F4FC80181519F41A0E063
:10EC1000B0E0ABBFFC01E790FAE2EF1621F022E092
:10EC20000030120799F60F94DCF10F94DCF182E6C4
:10EC300092EE60E00F94C2F1C60161E070E00F94C3
:10EC400034F20F94DCF10F94DCF110920202109276
:10EC50000302109204021092050278CE89E992EE26
:10EC600062E00F94F5F1279A2F9A16C02F9880E052
:10EC700090E0E0EDF7E03197F1F7019684369105E9
:10EC8000C1F72F9A80E090E0E0EDF7E03197F1F7DF
:10EC9000019684369105C1F78091C00087FFE6CFC9
:10ECA0008091C00087FFFCCF64C485EA92EE62E0E9
:10ECB0000F94F5F140910202509103026091040219
:10ECC0007091050281E020E10F9491F2809102029F
:10ECD00090910302A0910402B091050280509F4FD1
:10ECE000AF4FBF4F8093020290930302A0930402A0
:10ECF000B093050280509041A040B04008F426CE69
:10ED0000A4CF83EB92EE62E00F94F5F140910602FE
:10ED100050910702609108027091090280E020E1A1
:10ED20000F9491F28091060290910702A09108023F
:10ED3000B091090280509F4FAF4FBF4F80930602A2
:10ED400090930702A0930802B0930902FFCD80ECD4
:10ED500092EE62E00F94F5F183E792EE60E00F949B
:10ED6000F5F18FE792EE60E00F94F5F18BE892EE0B
:10ED700060E00F94F5F189E992EE60E00F94F5F10F
:10ED800085EA92EE60E00F94F5F183EB92EE60E09D
:10ED90000F94F5F180EC92EE60E00F94F5F187ECC2
:10EDA00092EE60E00F94F5F188ED92EE60E00F9442
:10EDB000F5F18FED92EE60E00F94F5F18AEE92EEB0
:10EDC00060E00F94F5F183E093EEBDCD87EC92EE19
:10EDD00062E00F94F5F181E40F947BF282E40F94EA
:10EDE0007BF283E40F947BF284E40F947BF285E45E
:10EDF0000F947BF286E40F947BF287E40F947BF20E
:10EE000088E40F947BF28AE40F947BF28BE40F94F6
:10EE10007BF28CE40F947BF299CD88ED92EE62E068
:10EE20000F94F5F1772473948824992409C48FED05
:10EE300092EE62E00F94F5F140910A0250910B02BC
:10EE400060910C0270910D0282E020E10F9491F22A
:10EE500080910A0290910B02A0910C02B0910D02D8
:10EE600080509F4FAF4FBF4F80930A0290930B0289
:10EE7000A0930C02B0930D0269CD8AEE92EE62E08F
:10EE80000F94F5F184EE90EE60E00F94F5F18FECC5
:10EE900091EE60E00F94F5F1662477244301CC5D98
:10EEA000DE4F19821882C452D140D401C301B695F5
:10EEB000A79597958795CA5DDE4F88839983AA8326
:10EEC000BB83C652D140CC5DDE4FA881B981C4520C
:10EED000D1401196CC5DDE4FB983A883C452D14096
:10EEE000CD0162E070E00F9434F2B0E2B093C6005E
:10EEF0008091C00086FFFCCF8091C0008064809329
:10EF0000C000EDE2E093C6008091C00086FFFCCF18
:10EF10008091C00080648093C000F0E2F093C6004E
:10EF20008091C00086FFFCCF8091C00080648093F8
:10EF3000C000CA5DDE4FE880F9800A811B81C6529D
:10EF4000D140BB27A12F902F8F2D0F940DF2CA5DBA
:10EF5000DE4F8881C652D1400F940DF2B0E2FB2EF5
:10EF6000F092C6008091C00086FFFCCF8091C00067
:10EF700080648093C0000DE30093C6008091C000C0
:10EF800086FFFCCF8091C00080648093C00010E2B7
:10EF90001093C6008091C00086FFFCCF8091C00016
:10EFA00080648093C0008BBEF3012791C65DDE4F65
:10EFB0002883CA52D140A22EBB24CC24DD2408943D
:10EFC000611C711C811C911C8BBEF3018791282E42
:10EFD0003324442455240894611C711C811C911C09
:10EFE0008BBEF3013791C55DDE4F3883CB52D140E4
:10EFF0000894611C711C811C911C8BBEF30147910C
:10F00000C45DDE4F4883CC52D140ADEFEA2EAFEF66
:10F01000FA2EAFEF0A2FAFEF1A2F6E0C7F1C801E57
:10F02000911E142D032DF22CEE24EA0CFB1C0C1D5A
:10F030001D1D0F940DF220E22093C6008091C000A8
:10F0400086FFFCCF8091C00080648093C000C65DC5
:10F05000DE4F8881CA52D1400F940DF230E23093D6
:10F06000C6008091C00086FFFCCF8091C000806404
:10F070008093C000C45DDE4F8881CC52D1400F9494
:10F080000DF240E24093C6008091C00086FFFCCFA5
:10F090008091C00080648093C000C55DDE4F888190
:10F0A000CB52D1400F940DF250E25093C6008091A4
:10F0B000C00086FFFCCF8091C00080648093C000B8
:10F0C0008FEFE8168FEFF80680E0080780E018075A
:10F0D00031F484E092EE60E00F94C2F1DFC0D80119
:10F0E000C7018070907CA070B0708050904CA040A0
:10F0F000B040D1F52FEF3FE340E050E0E222F322B1
:10F1000004231523CA5DDE4FA880B980CA80DB8046
:10F11000C652D140AE0CBF1CC01ED11EAA0CBB1CD7
:10F12000CC1CDD1C8EE092EE60E00F94C2F1BB2798
:10F13000A12F902F8F2D0F940DF28E2D0F940DF285
:10F1400030E23093C6008091C00086FFFCCF8091F2
:10F15000C00080648093C0004EE34093C60080915D
:10F16000C00086FFFCCF87C08EE09EEFA0E0B0E03D
:10F17000E822F9220A231B239CE0E91694E9F90608
:10F1800090E0090790E0190709F088C0C45DDE4FE0
:10F19000A881CC52D140EA2EFF2400E010E0102FCD
:10F1A0000F2DFE2CEE24C55DDE4FB881CB52D14031
:10F1B000EB0EF11C011D111DD601C501817090706F
:10F1C000A070B070DC0199278827E80EF91E0A1F8D
:10F1D0001B1F20EF30E040E050E0A222B322C42207
:10F1E000D52241E1AA0CBB1CCC1CDD1C4A95D1F7F1
:10F1F000EA0CFB1C0C1D1D1D81E090E0A0E0B0E0BE
:10F20000282239224A225B2235E1220C331C441C7D
:10F21000551C3A95D1F7E20CF31C041D151D57013E
:10F220006801AA0CBB1CCC1CDD1C85E192EE60E0E1
:10F230000F94C2F1C801AA27BB270F940DF2BB2778
:10F24000A12F902F8F2D0F940DF28E2D0F940DF274
:10F2500090E29093C6008091C00086FFFCCF809121
:10F26000C00080648093C000AEE3A093C60080918C
:10F27000C00086FFFCCF8091C00080648093C000F6
:10F28000C601AA27BB270F940DF2BB27AD2D9C2DDD
:10F290008B2D0F940DF28A2D0F940DF20F94DCF14B
:10F2A000CC5DDE4FE881F981C452D140F99709F471
:10F2B0004DCBF4E0EF2EF12C012D112D6E0C7F1CA7
:10F2C000801E911EF2CD83E093EE62E00F94F5F183
:10F2D0008AE192EE60E00F94C2F18091C00087FF56
:10F2E000FCCF1091C6001F751093C6008091C0001E
:10F2F00086FFFCCF8091C00080648093C0000F9493
:10F30000DCF1812F81548A3108F036C1163409F4BA
:10F3100095C0173490F4133409F44EC0143430F40B
:10F320001134F1F0123409F01DC130C0143409F465
:10F3300059C0153409F016C16BC01A3409F4C4C0A1
:10F340001B3438F4173409F48FC0183409F00AC19B
:10F35000A1C01B3409F4D2C01C3409F003C1E8C0B9
:10F360008FEF81B90DC082B1809582B980E090E0C5
:10F37000E0EDF7E03197F1F70196883C9105C1F790
:10F380008091C00087FFEFCF12B8EFC08FEF84B934
:10F390000DC085B1809585B980E090E0E0EDF7E0A3
:10F3A0003197F1F70196883C9105C1F78091C00033
:10F3B00087FFEFCF15B8D9C08FEF87B90DC088B1DF
:10F3C000809588B980E090E0E0EDF7E03197F1F7C3
:10F3D0000196883C9105C1F78091C00087FFEFCF6F
:10F3E00018B8C3C08FEF8AB90DC08BB180958BB9A7
:10F3F00080E090E0E0EDF7E03197F1F70196883C8E
:10F400009105C1F78091C00087FFEFCF1BB8ADC059
:10F410008FEF8DB90DC08EB180958EB980E090E0F0
:10F42000E0EDF7E03197F1F70196883C9105C1F7DF
:10F430008091C00087FFEFCF1EB897C08FEF80BBD1
:10F440000DC081B3809581BB80E090E0E0EDF7E0F6
:10F450003197F1F70196883C9105C1F78091C00082
:10F4600087FFEFCF11BA81C08FEF83BB0DC084B38C
:10F47000809584BB80E090E0E0EDF7E03197F1F714
:10F480000196883C9105C1F78091C00087FFEFCFBE
:10F4900014BA6BC08FEF809301010FC080910201FD
:10F4A00080958093020180E090E0E0EDF7E03197F5
:10F4B000F1F70196883C9105C1F78091C00087FF64
:10F4C000EDCF1092020151C08FEF809304010FC065
:10F4D0008091050180958093050180E090E0E0ED4A
:10F4E000F7E03197F1F70196883C9105C1F78091DB
:10F4F000C00087FFEDCF1092050137C08FEF8093DA
:10F5000007010FC08091080180958093080180E079
:10F5100090E0E0EDF7E03197F1F70196883C910536
:10F52000C1F78091C00087FFEDCF109208011DC088
:10F530008FEF80930A010FC080910B01809580931B
:10F540000B0180E090E0E0EDF7E03197F1F70196F4
:10F55000883C9105C1F78091C00087FFEDCF1092E4
:10F560000B0103C085E292EEEEC98091C00087FFD7
:10F57000FCCF8091C600EAC988E392EEE4C98CE131
:10F5800091EEE1C988249924933011F1943028F444
:10F59000913089F09230B8F408C0953061F195301F
:10F5A000F0F0963009F048C043C02B3109F042C951
:10F5B00091E06BE13FC96227C15DDE4F2883CF52E6
:10F5C000D14092E037C9B22FA0E0622793E032C960
:10F5D000822F90E0A82BB92B622794E02BC92E3004
:10F5E00009F039C3622795E0C05DDE4F19821882A9
:10F5F000C053D1401FC9E1E0F0E0EC0FFD1FC05D3A
:10F60000DE4F08811981C053D140E00FF11F2083E4
:10F610000F5F1F4FC05DDE4F19830883C053D14079
:10F6200062270A171B0709F005C9D80196E002C92D
:10F63000261709F010C303C0973009F0FBC87724E0
:10F640009981933109F412C19431C8F4963009F4C8
:10F65000D8C0973050F4923009F406C1933009F4C1
:10F660006DC0913009F059C253C0913109F477C08F
:10F67000923108F0BBC0903109F04FC2F5C098310B
:10F6800009F487C0993150F4953109F4EFC09531F0
:10F6900008F4C6C1963109F040C2C2C19A3109F4DA
:10F6A0006CC09A3108F491C09B3109F45BC09D3164
:10F6B00009F033C29D81903359F48F81882311F46E
:10F6C0009EE11CC0813011F091E018C098E916C08D
:10F6D000892F807591F0903539F4E0E0F0E089E011
:10F6E0008093570094910AC0983539F4E3E0F0E034
:10F6F00089E080935700949101C090E01A821B82A8
:10F700008D818C831D829E831F8227E030E009C299
:10F710001A8288E08B8381E48C8386E58D8382E581
:10F720008E8389E48F8383E5888780E589878FE5E9
:10F730008A8782E38B872BE030E0F3C18A818139AD
:10F7400041F0823941F0803911F48FE005C080E04A
:10F7500003C082E001C08AE01A828B8344C0772410
:10F76000739482C08D81882311F48EE12CC0813086
:10F7700011F081E028C088E926C01A82E1E0F0E0BB
:10F7800089E08093570084918B831C8224E030E0D1
:10F79000C8C18B81803589F48C81883039F4E2E0EE
:10F7A000F0E089E08093570084910DC0E0E0F0E044
:10F7B00089E080935700849106C0E3E0F0E089E09F
:10F7C0008093570084911A82DFCF8D81836C99E0FA
:10F7D000E1E0F0E0082E90935700E89507B600FCB2
:10F7E000FDCF1A821B8223E030E09BC180EC8A832C
:10F7F000CE5CDE4F188219821A821B82C253D1401E
:10F800008EC18A8190E0A0E0B0E0582F44273327D2
:10F8100022278B8190E0A0E0B0E0DC0199278827C7
:10F82000282B392B4A2B5B2B8D8190E0A0E0B0E098
:10F83000282B392B4A2B5B2B8C8190E0A0E0B0E089
:10F84000BA2FA92F982F8827282B392B4A2B5B2BCF
:10F85000220F331F441F551FC05EDE4F288339839C
:10F860004A835B83C052D1401A8259C13A81C95C34
:10F87000DE4F3883C753D140CA5CDE4F1882C6536F
:10F88000D1408B81C82EDD24CA5CDE4F488159816E
:10F89000C653D140C42AD52A933109F082C0CE5C28
:10F8A000DE4F88819981AA81BB81C253D1408050AB
:10F8B000904CA340B04030F583E0CE5CDE4FE88052
:10F8C000F9800A811B81C253D140F70100935B008C
:10F8D00080935700E89507B600FCFDCFCE5CDE4F65
:10F8E000088119812A813B81C253D14000501F4FAA
:10F8F0002F4F3F4FCE5CDE4F088319832A833B8313
:10F90000C253D140C05EDE4F488159816A817B81FC
:10F91000C052D140DE011B9631E08C9111962C91A2
:10F9200011971296C75CDE4F2883C953D140C85C3B
:10F93000DE4F1882C853D14090E0C85CDE4FE881AA
:10F94000F981C853D1408E2B9F2B0C01FA01609393
:10F950005B0030935700E89511244E5F5F4F6F4F67
:10F960007F4F0EEFE02E0FEFF02ECE0CDF1CC114F8
:10F97000D10499F685E0C05EDE4F088119812A81A5
:10F980003B81C052D140F80120935B008093570027
:10F99000E89507B600FCFDCF81E180935700E8951C
:10F9A00035C0C05EDE4F88819981AA81BB81C0527B
:10F9B000D140B695A795979587957C018601ABE0D8
:10F9C000AA2EB12CAC0EBD1E0BC0D5016D915D01F0
:10F9D000C7010F947FFE0894E11CF11C01501040F8
:10F9E0000115110591F7A60160E070E0440F551F65
:10F9F000661F771FC05EDE4FE880F9800A811B8199
:10FA0000C052D1404E0D5F1D601F711F1A82C05E33
:10FA1000DE4F488359836A837B83C052D1407FC0C5
:10FA2000FA80C55CDE4FF882CB53D140C65CDE4F16
:10FA30001882CA53D1408B81C82EDD24C65CDE4FAC
:10FA400008811981CA53D140C02AD12A1A828981DA
:10FA5000BE016D5F7F4F843121F59601C05EDE4FA0
:10FA6000E880F9800A811B81C052D1400BBFF701A9
:10FA700087919691DB018C9311969C936E5F7F4FDB
:10FA8000D801C7010296A11DB11DC05EDE4F88835B
:10FA90009983AA83BB83C052D14022503040F1F6F3
:10FAA00036C0C05EDE4F288139814A815B81C052F9
:10FAB000D1400894C108D108760100E010E0089414
:10FAC000C11CD11C0894E11CF11C011D111DE20E8A
:10FAD000F31E041F151F21BDBB27A52F942F832FB5
:10FAE00082BD2F5F3F4F4F4F5F4FF89A80B5DB01CC
:10FAF0008D93BD012E153F054007510761F7C05E8C
:10FB0000DE4F288339834A835B83C052D1409601FC
:10FB10002D5F3F4FFB01108204C080EC8A8322E0FE
:10FB200030E08BE18093C6008091C00086FFFCCF5F
:10FB30008091C00080648093C000C15DDE4FF88179
:10FB4000CF52D140F093C6008091C00086FFFCCF19
:10FB50008091C00080648093C000432F3093C60022
:10FB60008091C00086FFFCCF8091C00080648093AC
:10FB7000C000922F2093C6008091C00086FFFCCF6A
:10FB80008091C00080648093C0008EE08093C600A6
:10FB90008091C00086FFFCCF8091C000806480937C
:10FBA000C00065E1C15DDE4FE880CF52D1406E25D7
:10FBB00069276427FE01319610C090819093C6009A
:10FBC0008091C00086FFFCCF31968091C000806498
:10FBD0008093C0006927215030402115310569F715
:10FBE0006093C6008091C00086FFFCCF8091C0006A
:10FBF00080648093C00085B1805885B9772081F4F6
:10FC0000C15DDE4F0881CF52D1400F5FC15DDE4F35
:10FC10000883CF52D14090E0A0E0B0E00D941AF4F8
:10FC200027982F9880E090E020ED37E0F901319798
:10FC3000F1F7019684369105C9F700008091C00064
:10FC40008D7F8093C00081E180935700E895EE2777
:10FC5000FF270994FFCF90E00D941AF497FB092E2B
:10FC600007260AD077FD04D02ED006D000201AF443
:10FC7000709561957F4F0895F6F7909581959F4F08
:10FC80000895A1E21A2EAA1BBB1BFD010DC0AA1FDD
:10FC9000BB1FEE1FFF1FA217B307E407F50720F0F5
:10FCA000A21BB30BE40BF50B661F771F881F991F70
:10FCB0001A9469F760957095809590959B01AC01B9
:10FCC000BD01CF010895AA1BBB1B51E107C0AA1FAC
:10FCD000BB1FA617B70710F0A61BB70B881F991FED
:10FCE0005A95A9F780959095BC01CD010895F99991
:10FCF000FECF92BD81BDF89A992780B50895262F31
:10FD0000F999FECF1FBA92BD81BD20BD0FB6F89400
:0EFD1000FA9AF99A0FBE01960895F894FFCF63
:00000001FF
